{
  "contractName": "Market",
  "abi": [
    {
      "constant": true,
      "inputs": [],
      "name": "REVEAL_PERIOD",
      "outputs": [
        {
          "name": "",
          "type": "uint256"
        }
      ],
      "payable": false,
      "stateMutability": "view",
      "type": "function"
    },
    {
      "anonymous": false,
      "inputs": [
        {
          "indexed": true,
          "name": "hash",
          "type": "bytes32"
        }
      ],
      "name": "SwapCommitted",
      "type": "event"
    },
    {
      "anonymous": false,
      "inputs": [
        {
          "indexed": true,
          "name": "hash",
          "type": "bytes32"
        }
      ],
      "name": "SwapRevealed",
      "type": "event"
    },
    {
      "anonymous": false,
      "inputs": [
        {
          "indexed": true,
          "name": "hash",
          "type": "bytes32"
        }
      ],
      "name": "CommitCleared",
      "type": "event"
    },
    {
      "anonymous": false,
      "inputs": [
        {
          "indexed": true,
          "name": "hash",
          "type": "bytes32"
        },
        {
          "indexed": false,
          "name": "reason",
          "type": "string"
        }
      ],
      "name": "CommitEvicted",
      "type": "event"
    },
    {
      "anonymous": false,
      "inputs": [
        {
          "indexed": true,
          "name": "BaseToken",
          "type": "address"
        },
        {
          "indexed": true,
          "name": "QuoteToken",
          "type": "address"
        },
        {
          "indexed": false,
          "name": "swapType",
          "type": "uint8"
        },
        {
          "indexed": true,
          "name": "wallet",
          "type": "address"
        },
        {
          "indexed": false,
          "name": "amount",
          "type": "uint256"
        },
        {
          "indexed": false,
          "name": "price",
          "type": "uint256"
        },
        {
          "indexed": false,
          "name": "id",
          "type": "bytes32"
        },
        {
          "indexed": false,
          "name": "placedAfter",
          "type": "bytes32"
        }
      ],
      "name": "SwapPlaced",
      "type": "event"
    },
    {
      "anonymous": false,
      "inputs": [
        {
          "indexed": true,
          "name": "BaseToken",
          "type": "address"
        },
        {
          "indexed": true,
          "name": "QuoteToken",
          "type": "address"
        },
        {
          "indexed": false,
          "name": "swapType",
          "type": "uint8"
        },
        {
          "indexed": true,
          "name": "maker",
          "type": "address"
        },
        {
          "indexed": false,
          "name": "taker",
          "type": "address"
        },
        {
          "indexed": false,
          "name": "amount",
          "type": "uint256"
        },
        {
          "indexed": false,
          "name": "price",
          "type": "uint256"
        },
        {
          "indexed": false,
          "name": "id",
          "type": "bytes32"
        },
        {
          "indexed": false,
          "name": "fully",
          "type": "bool"
        }
      ],
      "name": "SwapFilled",
      "type": "event"
    },
    {
      "anonymous": false,
      "inputs": [
        {
          "indexed": true,
          "name": "BaseToken",
          "type": "address"
        },
        {
          "indexed": true,
          "name": "QuoteToken",
          "type": "address"
        },
        {
          "indexed": false,
          "name": "swapType",
          "type": "uint8"
        },
        {
          "indexed": true,
          "name": "wallet",
          "type": "address"
        },
        {
          "indexed": false,
          "name": "id",
          "type": "bytes32"
        }
      ],
      "name": "SwapCanceled",
      "type": "event"
    },
    {
      "constant": false,
      "inputs": [
        {
          "name": "_BaseToken",
          "type": "address"
        },
        {
          "name": "_QuoteToken",
          "type": "address"
        },
        {
          "name": "_hash",
          "type": "bytes32"
        }
      ],
      "name": "commitSwap",
      "outputs": [],
      "payable": true,
      "stateMutability": "payable",
      "type": "function"
    },
    {
      "constant": false,
      "inputs": [
        {
          "name": "_blockHash",
          "type": "bytes32"
        },
        {
          "name": "_BaseToken",
          "type": "address"
        },
        {
          "name": "_QuoteToken",
          "type": "address"
        },
        {
          "name": "_type",
          "type": "uint8"
        },
        {
          "name": "_amount",
          "type": "uint256"
        },
        {
          "name": "_priceLimit",
          "type": "uint256"
        },
        {
          "name": "_nonce",
          "type": "uint256"
        }
      ],
      "name": "reveal",
      "outputs": [],
      "payable": false,
      "stateMutability": "nonpayable",
      "type": "function"
    },
    {
      "constant": false,
      "inputs": [
        {
          "name": "_BaseToken",
          "type": "address"
        },
        {
          "name": "_QuoteToken",
          "type": "address"
        }
      ],
      "name": "clearSwaps",
      "outputs": [],
      "payable": false,
      "stateMutability": "nonpayable",
      "type": "function"
    },
    {
      "constant": false,
      "inputs": [
        {
          "name": "_BaseToken",
          "type": "address"
        },
        {
          "name": "_QuoteToken",
          "type": "address"
        },
        {
          "name": "_id",
          "type": "bytes32"
        },
        {
          "name": "_after",
          "type": "bytes32"
        }
      ],
      "name": "cancelBuySwap",
      "outputs": [],
      "payable": false,
      "stateMutability": "nonpayable",
      "type": "function"
    },
    {
      "constant": false,
      "inputs": [
        {
          "name": "_BaseToken",
          "type": "address"
        },
        {
          "name": "_QuoteToken",
          "type": "address"
        },
        {
          "name": "_id",
          "type": "bytes32"
        },
        {
          "name": "_after",
          "type": "bytes32"
        }
      ],
      "name": "cancelSellSwap",
      "outputs": [],
      "payable": false,
      "stateMutability": "nonpayable",
      "type": "function"
    },
    {
      "constant": true,
      "inputs": [
        {
          "name": "_BaseToken",
          "type": "address"
        },
        {
          "name": "_QuoteToken",
          "type": "address"
        },
        {
          "name": "_type",
          "type": "uint8"
        },
        {
          "name": "_size",
          "type": "uint256"
        },
        {
          "name": "_after",
          "type": "bytes32"
        }
      ],
      "name": "getSwapBook",
      "outputs": [
        {
          "components": [
            {
              "name": "id",
              "type": "bytes32"
            },
            {
              "name": "amount",
              "type": "uint256"
            },
            {
              "name": "price",
              "type": "uint256"
            },
            {
              "name": "wallet",
              "type": "address"
            }
          ],
          "name": "",
          "type": "tuple[]"
        }
      ],
      "payable": false,
      "stateMutability": "view",
      "type": "function"
    }
  ],
  "bytecode": "0x6080604052600060048190556001905561367d8061001e6000396000f3fe6080604052600436106100705760003560e01c8063a97c7bfc1161004e578063a97c7bfc146100ca578063c3529f3114610100578063d43c68c414610122578063e6b11d1a1461014257610070565b8063410322931461007557806379840630146100975780638eeae9ef146100aa575b600080fd5b34801561008157600080fd5b50610095610090366004612c6a565b610162565b005b6100956100a5366004612c1d565b610176565b3480156100b657600080fd5b506100956100c5366004612d5e565b6104ba565b3480156100d657600080fd5b506100ea6100e5366004612ccb565b6106ed565b6040516100f7919061337c565b60405180910390f35b34801561010c57600080fd5b506101156108dc565b6040516100f7919061353c565b34801561012e57600080fd5b5061009561013d366004612c6a565b6108e1565b34801561014e57600080fd5b5061009561015d366004612be3565b6108ef565b6101708484600085856108fd565b50505050565b6000801b600160008486604051602001610191929190613339565b60405160208183030381529060405280519060200120815260200190815260200160002060000154146101f9576040517f08c379a00000000000000000000000000000000000000000000000000000000081526004016101f0906134ac565b60405180910390fd5b6000801b600260008486604051602001610214929190613339565b6040516020818303038152906040528051906020012081526020019081526020016000206000015414610273576040517f08c379a00000000000000000000000000000000000000000000000000000000081526004016101f0906134ac565b600060036000858560405160200161028c929190613339565b604080517fffffffffffffffffffffffffffffffffffffffffffffffffffffffffffffffe081840301815291815281516020928301208352828201939093529082016000908120858252600281019283905292902054919250901561031d576040517f08c379a00000000000000000000000000000000000000000000000000000000081526004016101f09061345c565b6040518060c001604052804381526020013a81526020013481526020016000801b81526020016000600181111561035057fe5b8152604080516080808201835260008083526020838101829052838501829052606080850183905295810193909352888152868352839020855181559185015160018084019190915592850151600283015592840151600382015591830151600483018054919290917fffffffffffffffffffffffffffffffffffffffffffffffffffffffffffffff00169083818111156103e757fe5b021790555060a0919091015180516005830180547fffffffffffffffffffffffff00000000000000000000000000000000000000001673ffffffffffffffffffffffffffffffffffffffff909216919091179055602081015160068301556040810151600783015560600151600890910155815461046757828255610481565b600182015460009081526020829052604090206003018390555b6001820183905560405183907fe4030a0eecadba77a3d658971f45e85074fb6b4d6c4592545901e16adf56d26c90600090a25050505050565b6000338787878787876040516020016104d997969594939291906132d1565b604051602081830303815290604052805190602001209050600060036000898960405160200161050a929190613339565b604080517fffffffffffffffffffffffffffffffffffffffffffffffffffffffffffffffe081840301815291815281516020928301208352828201939093529082016000908120858252600201909152208054909150610596576040517f08c379a00000000000000000000000000000000000000000000000000000000081526004016101f0906134bc565b80544089146105d1576040517f08c379a00000000000000000000000000000000000000000000000000000000081526004016101f09061346c565b60068101541561060d576040517f08c379a00000000000000000000000000000000000000000000000000000000081526004016101f0906134dc565b6004810180548791907fffffffffffffffffffffffffffffffffffffffffffffffffffffffffffffff00166001838181111561064557fe5b0217905550604080516080810182523380825260208201889052818301879052600060609092018290526005840180547fffffffffffffffffffffffff0000000000000000000000000000000000000000169091179055600683018790556007830186905560088301819055905183917f894c68bc39e00b5f6f17b0d348c038f9420d1ce2fef147076489d7825e8e384891a26106e28888610b52565b505050505050505050565b60606000808560018111156106fe57fe5b1461070a57600261070d565b60015b60008888604051602001610722929190613339565b604080517fffffffffffffffffffffffffffffffffffffffffffffffffffffffffffffffe0818403018152918152815160209283012083529082019290925201600090812091506001820190841561077a578461077d565b82545b6000818152602084815260409182902082518a81528a830281019092019092529192509087906060908280156107cd57816020015b6107ba612b7a565b8152602001906001900390816107b25790505b50905060005b828110156108ca57600184015461084e578060405190808252806020026020018201604052801561081e57816020015b61080b612b7a565b8152602001906001900390816108035790505b50915080610834575095506108d3945050505050565b865460008181526020889052604081209196509094509092505b6040805160808101825286815260018601546020820152600286015491810191909152845473ffffffffffffffffffffffffffffffffffffffff166060820152825183908390811061089c57fe5b60209081029190910181019190915260039094015460008181529487905260409094209394506001016107d3565b50955050505050505b95945050505050565b600781565b6101708484600185856108fd565b6108f98282610b52565b5050565b60008084600181111561090c57fe5b1461091857600261091b565b60015b60008787604051602001610930929190613339565b60405160208183030381529060405280519060200120815260200190815260200160002090506000816001019050610966612b7a565b506000848152602082815260408083208151608081018352815473ffffffffffffffffffffffffffffffffffffffff16815260018201549381019390935260028101549183019190915260030154606082015283549091908614156109d45750606081015183556001610a4b565b8415806109f05750600085815260208490526040902060020154155b156109fa57835494505b60008581526020849052604090205b600281015415610a49578681600301541415610a32576060830151600382015560019150610a49565b600301546000908152602084905260409020610a09565b505b80156106e257815173ffffffffffffffffffffffffffffffffffffffff163314610aa1576040517f08c379a00000000000000000000000000000000000000000000000000000000081526004016101f09061347c565b60008681526020849052604080822080547fffffffffffffffffffffffff00000000000000000000000000000000000000001681556001810183905560028101839055600301919091558251905173ffffffffffffffffffffffffffffffffffffffff918216918a811691908c16907f933c4b55e152ebfe474c29daf454c06fc3f67c004c793dee4c1b77bff414708890610b3f908c908c906133f5565b60405180910390a4505050505050505050565b600080546001018082556040519091906003908290610b779087908790602001613339565b604080517fffffffffffffffffffffffffffffffffffffffffffffffffffffffffffffffe08184030181529181528151602092830120835282820193909352908201600090812080548083526002820193849052938220909450919291600581015b62030d405a118015610beb5750815415155b1561148e576006820154610cf9576007826000015443031115610cef5750600301546000818152602085905260409081902090519193925090600582019083907fcaa1d92871f6864a55dade04a055744abf1fa260ebd79238d76e3c4bfd5acb8f90610c569061352c565b60405180910390a260008381526020869052604081208181556001810182905560028101829055600381018290556004810180547fffffffffffffffffffffffffffffffffffffffffffffffffffffffffffffff001690556005810180547fffffffffffffffffffffffff0000000000000000000000000000000000000000169055600681018290556007810182905560080155610cf4565b61148e565b611489565b8154600e43919091031115610def5750600301546000818152602085905260409081902090519193925090600582019083907fcaa1d92871f6864a55dade04a055744abf1fa260ebd79238d76e3c4bfd5acb8f90610d569061352c565b60405180910390a260008381526020869052604081208181556001810182905560028101829055600381018290556004810180547fffffffffffffffffffffffffffffffffffffffffffffffffffffffffffffff001690556005810180547fffffffffffffffffffffffff0000000000000000000000000000000000000000169055600681018290556007810182905560080155611489565b8392506000600483015460ff166001811115610e0757fe5b14156111f4576002810154610ff857600181015481546040517f70a0823100000000000000000000000000000000000000000000000000000000815273ffffffffffffffffffffffffffffffffffffffff8c8116926370a0823192610e7292909116906004016132c3565b60206040518083038186803b158015610e8a57600080fd5b505afa158015610e9e573d6000803e3d6000fd5b505050506040513d601f19601f82011682018060405250610ec29190810190612dfa565b10158015610f7c5750600181015481546040517fdd62ed3e00000000000000000000000000000000000000000000000000000000815273ffffffffffffffffffffffffffffffffffffffff8b81169263dd62ed3e92610f2992909116903090600401613339565b60206040518083038186803b158015610f4157600080fd5b505afa158015610f55573d6000803e3d6000fd5b505050506040513d601f19601f82011682018060405250610f799190810190612dfa565b10155b15610fbc5760405183907f3bdaee6e704aacae6a8bf523e8167a70b9325a4ef678754f7df0167c4b95f16790600090a2610fb78989836114e0565b610ff3565b827fcaa1d92871f6864a55dade04a055744abf1fa260ebd79238d76e3c4bfd5acb8f604051610fea906134ec565b60405180910390a25b6111ef565b61100b89826001015483600201546114eb565b81546040517f70a0823100000000000000000000000000000000000000000000000000000000815273ffffffffffffffffffffffffffffffffffffffff8b8116926370a082319261106292909116906004016132c3565b60206040518083038186803b15801561107a57600080fd5b505afa15801561108e573d6000803e3d6000fd5b505050506040513d601f19601f820116820180604052506110b29190810190612dfa565b1015801561117a57506110ce89826001015483600201546114eb565b81546040517fdd62ed3e00000000000000000000000000000000000000000000000000000000815273ffffffffffffffffffffffffffffffffffffffff8b81169263dd62ed3e9261112792909116903090600401613339565b60206040518083038186803b15801561113f57600080fd5b505afa158015611153573d6000803e3d6000fd5b505050506040513d601f19601f820116820180604052506111779190810190612dfa565b10155b156111b85760405183907f3bdaee6e704aacae6a8bf523e8167a70b9325a4ef678754f7df0167c4b95f16790600090a2610ff389898387600061159a565b827fcaa1d92871f6864a55dade04a055744abf1fa260ebd79238d76e3c4bfd5acb8f6040516111e6906134ec565b60405180910390a25b6113e3565b600181015481546040517f70a0823100000000000000000000000000000000000000000000000000000000815273ffffffffffffffffffffffffffffffffffffffff8c8116926370a082319261125092909116906004016132c3565b60206040518083038186803b15801561126857600080fd5b505afa15801561127c573d6000803e3d6000fd5b505050506040513d601f19601f820116820180604052506112a09190810190612dfa565b1015801561135a5750600181015481546040517fdd62ed3e00000000000000000000000000000000000000000000000000000000815273ffffffffffffffffffffffffffffffffffffffff8c81169263dd62ed3e9261130792909116903090600401613339565b60206040518083038186803b15801561131f57600080fd5b505afa158015611333573d6000803e3d6000fd5b505050506040513d601f19601f820116820180604052506113579190810190612dfa565b10155b156113ac5760405183907f3bdaee6e704aacae6a8bf523e8167a70b9325a4ef678754f7df0167c4b95f16790600090a2600281015461139e57610ff38989836115c3565b6111ef8989838760006115ce565b827fcaa1d92871f6864a55dade04a055744abf1fa260ebd79238d76e3c4bfd5acb8f6040516113da906134ec565b60405180910390a25b5060039081015460008181526020869052604080822085835290822082815560018101839055600281018390559384018290556004840180547fffffffffffffffffffffffffffffffffffffffffffffffffffffffffffffff00169055600584810180547fffffffffffffffffffffffff000000000000000000000000000000000000000016905560068501839055600785018390556008909401919091559093509081015b610bd9565b8554841461149a578386555b50505050505060005481146114db576040517f08c379a00000000000000000000000000000000000000000000000000000000081526004016101f09061351c565b505050565b6114db8383836115f0565b60006115908473ffffffffffffffffffffffffffffffffffffffff1663313ce5676040518163ffffffff1660e01b815260040160206040518083038186803b15801561153657600080fd5b505afa15801561154a573d6000803e3d6000fd5b505050506040513d601f19601f8201168201806040525061156e9190810190612e18565b60ff16600a0a611584858563ffffffff611aae16565b9063ffffffff611b0b16565b90505b9392505050565b6115a5858585611b5a565b6001830154156115bc576115bc858585858561203c565b5050505050565b6114db83838361228a565b6115d985858561228a565b6001830154156115bc576115bc8585858585612741565b6000600260008585604051602001611609929190613339565b604080517fffffffffffffffffffffffffffffffffffffffffffffffffffffffffffffffe0818403018152918152815160209283012083528282019390935290820160009081208054808352600180830190945293822092860154909450905b60008211801561167d575060008360010154115b15611a915761169588846001015485600201546114eb565b9050808210156118aa576116ba81611584848660010154611aae90919063ffffffff16565b835487549192506116e7918a9173ffffffffffffffffffffffffffffffffffffffff90811691168461299e565b1561185c57600183018054829003905585548354600285015473ffffffffffffffffffffffffffffffffffffffff808b16936323b872dd9390821692911690611733908d9087906114eb565b6040518463ffffffff1660e01b815260040161175193929190613354565b602060405180830381600087803b15801561176b57600080fd5b505af115801561177f573d6000803e3d6000fd5b505050506040513d601f19601f820116820180604052506117a39190810190612d40565b6117d9576040517f08c379a00000000000000000000000000000000000000000000000000000000081526004016101f09061348c565b82548654600285015460405173ffffffffffffffffffffffffffffffffffffffff938416938b8116938d8216937f2d506723d317e6248a1ab95dd015cde59828be79eb3112ed1adf6e01b23efea09361183c93600093169189918d90859061339b565b60405180910390a4611853888285600201546114eb565b82039150611a91565b837fcaa1d92871f6864a55dade04a055744abf1fa260ebd79238d76e3c4bfd5acb8f60405161188a906134ec565b60405180910390a26118a0856001018585612ae2565b9094509250611a8c565b8254865460018501546118da928b9273ffffffffffffffffffffffffffffffffffffffff9182169291169061299e565b15611a4157855483546040517f23b872dd000000000000000000000000000000000000000000000000000000008152938390039373ffffffffffffffffffffffffffffffffffffffff808b16936323b872dd93611941939183169216908690600401613354565b602060405180830381600087803b15801561195b57600080fd5b505af115801561196f573d6000803e3d6000fd5b505050506040513d601f19601f820116820180604052506119939190810190612d40565b6119c9576040517f08c379a00000000000000000000000000000000000000000000000000000000081526004016101f09061348c565b82548654600180860154600287015460405173ffffffffffffffffffffffffffffffffffffffff958616958d8116958f8216957f2d506723d317e6248a1ab95dd015cde59828be79eb3112ed1adf6e01b23efea095611a349560009594909316939092918e9161339b565b60405180910390a4611a78565b837fcaa1d92871f6864a55dade04a055744abf1fa260ebd79238d76e3c4bfd5acb8f604051611a6f906134ec565b60405180910390a25b611a86856001018585612ae2565b90945092505b611669565b84548414611a9d578385555b506001909401939093555050505050565b600082611abd57506000611b05565b82820282848281611aca57fe5b0414611b02576040517f08c379a00000000000000000000000000000000000000000000000000000000081526004016101f0906134fc565b90505b92915050565b6000808211611b46576040517f08c379a00000000000000000000000000000000000000000000000000000000081526004016101f0906134cc565b6000828481611b5157fe5b04949350505050565b6000600260008585604051602001611b73929190613339565b604080517fffffffffffffffffffffffffffffffffffffffffffffffffffffffffffffffe0818403018152918152815160209283012083528282019390935290820160009081208054808352600182019093529281209293509091905b808560010154118015611bf7575084600201548260020154111580611bf757506002850154155b8015611c07575060008260010154115b1561201b578160010154818660010154031015611e2157815485546001870154611c51928a9273ffffffffffffffffffffffffffffffffffffffff9182169291169085900361299e565b15611dd25760018086018054918401805492849003909203909155855483549154600285015473ffffffffffffffffffffffffffffffffffffffff808b16946323b872dd94821693911691611cac918d9190889003906114eb565b6040518463ffffffff1660e01b8152600401611cca93929190613354565b602060405180830381600087803b158015611ce457600080fd5b505af1158015611cf8573d6000803e3d6000fd5b505050506040513d601f19601f82011682018060405250611d1c9190810190612d40565b611d52576040517f08c379a00000000000000000000000000000000000000000000000000000000081526004016101f09061348c565b815485546001870154600285015460405173ffffffffffffffffffffffffffffffffffffffff948516948b8116948d8216947f2d506723d317e6248a1ab95dd015cde59828be79eb3112ed1adf6e01b23efea094611dbf9460009490931692918a9003918c90859061339b565b60405180910390a4506001840154611e1c565b827fcaa1d92871f6864a55dade04a055744abf1fa260ebd79238d76e3c4bfd5acb8f604051611e00906134ec565b60405180910390a2611e16846001018484612ae2565b90935091505b612016565b815485546001840154611e51928a9273ffffffffffffffffffffffffffffffffffffffff9182169291169061299e565b15611fcb57845482546001840154600285015473ffffffffffffffffffffffffffffffffffffffff808b16946323b872dd9490821693911691611e95918d916114eb565b6040518463ffffffff1660e01b8152600401611eb393929190613354565b602060405180830381600087803b158015611ecd57600080fd5b505af1158015611ee1573d6000803e3d6000fd5b505050506040513d601f19601f82011682018060405250611f059190810190612d40565b611f3b576040517f08c379a00000000000000000000000000000000000000000000000000000000081526004016101f09061348c565b81548554600180850154600286015460405173ffffffffffffffffffffffffffffffffffffffff958616958c8116958e8216957f2d506723d317e6248a1ab95dd015cde59828be79eb3112ed1adf6e01b23efea095611fa69560009594909316939092918d9161339b565b60405180910390a46001820154611fc490829063ffffffff612b3b16565b9050612002565b827fcaa1d92871f6864a55dade04a055744abf1fa260ebd79238d76e3c4bfd5acb8f604051611ff9906134ec565b60405180910390a25b612010846001018484612ae2565b90935091505b611bd0565b83548314612027578284555b60019094018054949094039093555050505050565b6000600160008787604051602001612055929190613339565b60405160208183030381529060405280519060200120815260200190815260200160002090505b82158061209b5750600083815260018083016020526040909120015415155b156120e95783546040516120cc91859173ffffffffffffffffffffffffffffffffffffffff9091169060200161338d565b60405160208183030381529060405280519060200120925061207c565b600083815260018083016020526040909120855481547fffffffffffffffffffffffff00000000000000000000000000000000000000001673ffffffffffffffffffffffffffffffffffffffff90911617815581860154918101919091556002808601549082015560038086015491015581158061217e57506000828152600182016020526040902060029081015490850154115b1561218857805491505b600082815260018201602052604090206002808201549086015411612206576003810154600090815260018301602052604090205b80600201548660020154116121ef576003918201549181015460009081526001840160205260409020919350906121bd565b506003808201805491870191909155849055612215565b81546003860155838255600092505b84546001860154600287015460405173ffffffffffffffffffffffffffffffffffffffff938416938a811693908c16927fd47836a7ec12d7a6d08a515618a43d929c2330433ecf7c014e02a374641532cc926122799260009290918c908c90613410565b60405180910390a450505050505050565b60006001600085856040516020016122a3929190613339565b604080517fffffffffffffffffffffffffffffffffffffffffffffffffffffffffffffffe0818403018152918152815160209283012083528282019390935290820160009081208054808352600180830190945293909120918501549093505b60008111801561231b57508460020154826002015410155b801561232b575060008260010154115b156127255781600101548110156125315781548554600284015461237992899273ffffffffffffffffffffffffffffffffffffffff91821692911690612374908c9087906114eb565b61299e565b156124e2576001820180548290039055845482546040517f23b872dd00000000000000000000000000000000000000000000000000000000815273ffffffffffffffffffffffffffffffffffffffff808b16936323b872dd936123e6939183169216908690600401613354565b602060405180830381600087803b15801561240057600080fd5b505af1158015612414573d6000803e3d6000fd5b505050506040513d601f19601f820116820180604052506124389190810190612d40565b61246e576040517f08c379a00000000000000000000000000000000000000000000000000000000081526004016101f09061350c565b81548554600284015460405173ffffffffffffffffffffffffffffffffffffffff938416938a8116938c8216937f2d506723d317e6248a1ab95dd015cde59828be79eb3112ed1adf6e01b23efea0936124d293600193169189918c9060009061339b565b60405180910390a450600061252c565b827fcaa1d92871f6864a55dade04a055744abf1fa260ebd79238d76e3c4bfd5acb8f604051612510906134ec565b60405180910390a2612526846001018484612ae2565b90935091505b612720565b815485546001840154600285015461256c938a9373ffffffffffffffffffffffffffffffffffffffff91821693911691612374918d916114eb565b156126d5576001820154855483546040517f23b872dd000000000000000000000000000000000000000000000000000000008152938390039373ffffffffffffffffffffffffffffffffffffffff808c16946323b872dd946125d79490831693921691600401613354565b602060405180830381600087803b1580156125f157600080fd5b505af1158015612605573d6000803e3d6000fd5b505050506040513d601f19601f820116820180604052506126299190810190612d40565b61265f576040517f08c379a00000000000000000000000000000000000000000000000000000000081526004016101f09061350c565b81548554600180850154600286015460405173ffffffffffffffffffffffffffffffffffffffff958616958c8116958e8216957f2d506723d317e6248a1ab95dd015cde59828be79eb3112ed1adf6e01b23efea0956126c895919493909216928c90859061339b565b60405180910390a461270c565b827fcaa1d92871f6864a55dade04a055744abf1fa260ebd79238d76e3c4bfd5acb8f604051612703906134ec565b60405180910390a25b61271a846001018484612ae2565b90935091505b612303565b83548314612731578284555b6001909401939093555050505050565b600060026000878760405160200161275a929190613339565b60405160208183030381529060405280519060200120815260200190815260200160002090505b8215806127a05750600083815260018083016020526040909120015415155b156127ee5783546040516127d191859173ffffffffffffffffffffffffffffffffffffffff9091169060200161338d565b604051602081830303815290604052805190602001209250612781565b600083815260018083016020526040909120855481547fffffffffffffffffffffffff00000000000000000000000000000000000000001673ffffffffffffffffffffffffffffffffffffffff90911617815581860154918101919091556002808601549082015560038086015491015581158061288357506000828152600182016020526040902060029081015490850154105b1561288d57805491505b6000828152600182016020526040902060028082015490860154108015906128b9575060008160020154115b1561292f576003810154600090815260018301602052604090205b80600201548660020154101580156128f0575060008160020154115b15612918576003918201549181015460009081526001840160205260409020919350906128d4565b50600380820180549187019190915584905561293e565b81546003860155838255600092505b8454600180870154600288015460405173ffffffffffffffffffffffffffffffffffffffff948516948b811694908d16937fd47836a7ec12d7a6d08a515618a43d929c2330433ecf7c014e02a374641532cc93612279938c908c90613410565b604051600090819060609073ffffffffffffffffffffffffffffffffffffffff8816907f23b872dd00000000000000000000000000000000000000000000000000000000906129f590899089908990602001613354565b604080517fffffffffffffffffffffffffffffffffffffffffffffffffffffffffffffffe081840301815290829052612a31929160200161329b565b604080517fffffffffffffffffffffffffffffffffffffffffffffffffffffffffffffffe081840301815290829052612a69916132b7565b6000604051808303816000865af19150503d8060008114612aa6576040519150601f19603f3d011682016040523d82523d6000602084013e612aab565b606091505b50915091508115612ad35780806020019051612aca9190810190612d40565b92505050612ada565b6000925050505b949350505050565b6003908101546000928352602093909352604080832080547fffffffffffffffffffffffff0000000000000000000000000000000000000000168155600181018490556002810184905590910182905582825290209091565b600082820183811015611b02576040517f08c379a00000000000000000000000000000000000000000000000000000000081526004016101f09061349c565b60408051608081018252600080825260208201819052918101829052606081019190915290565b8035611b0581613607565b8051611b058161361b565b8035611b0581613624565b8035611b058161362d565b8051611b0581613624565b8051611b058161363a565b60008060408385031215612bf657600080fd5b6000612c028585612ba1565b9250506020612c1385828601612ba1565b9150509250929050565b600080600060608486031215612c3257600080fd5b6000612c3e8686612ba1565b9350506020612c4f86828701612ba1565b9250506040612c6086828701612bb7565b9150509250925092565b60008060008060808587031215612c8057600080fd5b6000612c8c8787612ba1565b9450506020612c9d87828801612ba1565b9350506040612cae87828801612bb7565b9250506060612cbf87828801612bb7565b91505092959194509250565b600080600080600060a08688031215612ce357600080fd5b6000612cef8888612ba1565b9550506020612d0088828901612ba1565b9450506040612d1188828901612bc2565b9350506060612d2288828901612bb7565b9250506080612d3388828901612bb7565b9150509295509295909350565b600060208284031215612d5257600080fd5b6000612ada8484612bac565b600080600080600080600060e0888a031215612d7957600080fd5b6000612d858a8a612bb7565b9750506020612d968a828b01612ba1565b9650506040612da78a828b01612ba1565b9550506060612db88a828b01612bc2565b9450506080612dc98a828b01612bb7565b93505060a0612dda8a828b01612bb7565b92505060c0612deb8a828b01612bb7565b91505092959891949750929550565b600060208284031215612e0c57600080fd5b6000612ada8484612bcd565b600060208284031215612e2a57600080fd5b6000612ada8484612bd8565b6000612e428383613251565b505060800190565b612e5381613562565b82525050565b6000612e6482613550565b612e6e8185613554565b9350612e798361354a565b8060005b83811015612ea7578151612e918882612e36565b9750612e9c8361354a565b925050600101612e7d565b509495945050505050565b612e538161356d565b612e5381613572565b612e53612ed082613575565b613572565b6000612ee082613550565b612eea818561355d565b9350612efa8185602086016135ce565b9290920192915050565b612e53816135c3565b6000612f1a601083613554565b7f4475706c696361746520636f6d6d697400000000000000000000000000000000815260200192915050565b6000612f53601283613554565b7f496e76616c696420626c6f636b20686173680000000000000000000000000000815260200192915050565b6000612f8c600c83613554565b7f57726f6e672077616c6c65740000000000000000000000000000000000000000815260200192915050565b6000612fc5601a83613554565b7f51756f7465546f6b656e207472616e73666572206661696c6564000000000000815260200192915050565b6000612ffe601b83613554565b7f536166654d6174683a206164646974696f6e206f766572666c6f770000000000815260200192915050565b6000613037601083613554565b7f5573652072657665727365207061697200000000000000000000000000000000815260200192915050565b6000613070601083613554565b7f436f6d6d6974206e6f7420666f756e6400000000000000000000000000000000815260200192915050565b60006130a9601a83613554565b7f536166654d6174683a206469766973696f6e206279207a65726f000000000000815260200192915050565b60006130e2601083613554565b7f416c72656164792072657665616c656400000000000000000000000000000000815260200192915050565b600061311b600983613554565b7f416c6c6f77616e63650000000000000000000000000000000000000000000000815260200192915050565b6000613154602183613554565b7f536166654d6174683a206d756c7469706c69636174696f6e206f766572666c6f81527f7700000000000000000000000000000000000000000000000000000000000000602082015260400192915050565b60006131b3601983613554565b7f42617365546f6b656e207472616e73666572206661696c656400000000000000815260200192915050565b60006131ec601f83613554565b7f5265656e7472616e637947756172643a207265656e7472616e742063616c6c00815260200192915050565b6000613225600783613554565b7f4578706972656400000000000000000000000000000000000000000000000000815260200192915050565b805160808301906132628482612ebb565b5060208201516132756020850182612ebb565b5060408201516132886040850182612ebb565b5060608201516101706060850182612e4a565b60006132a78285612ec4565b600482019150612ada8284612ed5565b60006115938284612ed5565b60208101611b058284612e4a565b60e081016132df828a612e4a565b6132ec6020830189612e4a565b6132f96040830188612e4a565b6133066060830187612f04565b6133136080830186612ebb565b61332060a0830185612ebb565b61332d60c0830184612ebb565b98975050505050505050565b604081016133478285612e4a565b6115936020830184612e4a565b606081016133628286612e4a565b61336f6020830185612e4a565b612ada6040830184612ebb565b602080825281016115938184612e59565b604081016133478285612ebb565b60c081016133a98289612f04565b6133b66020830188612e4a565b6133c36040830187612ebb565b6133d06060830186612ebb565b6133dd6080830185612ebb565b6133ea60a0830184612eb2565b979650505050505050565b604081016134038285612f04565b6115936020830184612ebb565b60a0810161341e8288612f04565b61342b6020830187612ebb565b6134386040830186612ebb565b6134456060830185612ebb565b6134526080830184612ebb565b9695505050505050565b60208082528101611b0581612f0d565b60208082528101611b0581612f46565b60208082528101611b0581612f7f565b60208082528101611b0581612fb8565b60208082528101611b0581612ff1565b60208082528101611b058161302a565b60208082528101611b0581613063565b60208082528101611b058161309c565b60208082528101611b05816130d5565b60208082528101611b058161310e565b60208082528101611b0581613147565b60208082528101611b05816131a6565b60208082528101611b05816131df565b60208082528101611b0581613218565b60208101611b058284612ebb565b60200190565b5190565b90815260200190565b919050565b6000611b05826135a4565b151590565b90565b7fffffffff000000000000000000000000000000000000000000000000000000001690565b8061355d816135fa565b73ffffffffffffffffffffffffffffffffffffffff1690565b60ff1690565b6000611b058261359a565b60005b838110156135e95781810151838201526020016135d1565b838111156101705750506000910152565b6002811061360457fe5b50565b61361081613562565b811461360457600080fd5b6136108161356d565b61361081613572565b6002811061360457600080fd5b613610816135bd56fea265627a7a72305820769e16eb6d4946b6466842cb0f31b6a9d44aeb4efe5dbb62def468d1f134229a6c6578706572696d656e74616cf50037",
  "source": "pragma solidity ^0.5.8;\npragma experimental ABIEncoderV2;\n\n\nimport \"@openzeppelin/contracts/math/SafeMath.sol\";\nimport \"@openzeppelin/contracts/utils/ReentrancyGuard.sol\";\n\n\n\ninterface ERC20 {\n    function decimals() external view returns (uint8);\n\n    function balanceOf(address account) external view returns (uint256);\n    function allowance(address owner, address spender) external view returns (uint256);\n\n    function transferFrom(address sender, address recipient, uint256 amount)\n    external returns (bool);\n}\n\n\ncontract Market is ReentrancyGuard {\n    using SafeMath for uint256;\n\n    uint256 constant public REVEAL_PERIOD = 7; // 7 blocks\n\n    enum SwapType {BUY, SELL}\n\n    // We are going to organize the swap book into a linked list\n    struct Swap {\n        address wallet;\n        uint256 amount;\n        uint256 price;\n        bytes32 next; // Linked list: id of next priced swap\n    }\n    // For each trading pair tokenA/tokenB\n    // we are going to have 2 buy swap books\n    // one for buy swaps and one for sell swaps\n    struct SwapBook {\n        bytes32 top; // Head of a linked list, id of top priced swap\n        mapping(bytes32 => Swap) swaps;\n    }\n    // bytes32(keccak256(_BaseToken, _QuoteToken)) => SwapBook\n    mapping(bytes32 => SwapBook) private buySwapBooks;\n    mapping(bytes32 => SwapBook) private sellSwapBooks;\n\n\n    struct Commit {\n        // Commit data\n        uint256 block;\n        uint256 gasPrice;\n        uint256 fee;\n        bytes32 next; // Linked list\n\n        // Swap data\n        SwapType swapType;\n        Swap swap;\n    }\n    struct CommitBook {\n        bytes32 head; // Head of a linked list, id of top priced swap\n        bytes32 tail; // Head of a linked list, id of top priced swap\n        mapping(bytes32 => Commit) commits;\n    }\n    // For each trading pair tokenA/tokenB\n    // we are going to have a commit/reveal book\n    mapping(bytes32 => CommitBook) private commitBooks;\n\n\n    uint256 private balance = 0; // fees collected\n\n\n    event SwapCommitted(bytes32 indexed hash);\n    event SwapRevealed(bytes32 indexed hash);\n    event CommitCleared(bytes32 indexed hash);\n    event CommitEvicted(bytes32 indexed hash, string reason);\n    event SwapPlaced(address indexed BaseToken, address indexed QuoteToken, SwapType swapType, address indexed wallet, uint256 amount, uint256 price, bytes32 id, bytes32 placedAfter);\n    event SwapFilled(address indexed BaseToken, address indexed QuoteToken, SwapType swapType, address indexed maker, address taker, uint256 amount, uint256 price, bytes32 id, bool fully);\n    event SwapCanceled(address indexed BaseToken, address indexed QuoteToken, SwapType swapType, address indexed wallet, bytes32 id);\n\n\n    // Converting base token amount into Quote Token amount\n    function tokenToQuoteToken(address _BaseToken, uint256 _tokenAmount, uint256 _price)\n    private view returns (uint256) {\n        return _tokenAmount.mul(_price).div(10 ** uint256(ERC20(_BaseToken).decimals()));\n    }\n\n\n    function commitSwap(\n        address _BaseToken, // token to buy/sell\n        address _QuoteToken, // quote token to pay with\n        bytes32 _hash\n    ) external payable {\n        // TODO maybe just do whitelisting?\n        // Check if the swap book with reverse pair exists\n        require(buySwapBooks[keccak256(abi.encode(_QuoteToken, _BaseToken))].top == bytes32(0), 'Use reverse pair');\n        require(sellSwapBooks[keccak256(abi.encode(_QuoteToken, _BaseToken))].top == bytes32(0), 'Use reverse pair');\n\n        CommitBook storage commitBook = commitBooks[keccak256(abi.encode(_BaseToken, _QuoteToken))];\n        mapping(bytes32 => Commit) storage commits = commitBook.commits;\n\n        require(commits[_hash].block == 0, 'Duplicate commit');\n\n        // Allocating storage with values\n        commits[_hash] = Commit(\n            block.number,\n            tx.gasprice,\n            msg.value,\n            bytes32(0),\n            SwapType.BUY,\n            Swap(address(0), 0, 0, bytes32(0)) // TODO separate swap from commit to save storage here\n        );\n\n        if (commitBook.head == bytes32(0)) {\n            commitBook.head = _hash;\n        } else {\n            commits[commitBook.tail].next = _hash;\n        }\n        commitBook.tail = _hash;\n\n        emit SwapCommitted(_hash);\n\n        // TODO count extractable balance\n        // require(msg.value >= 1000000 * tx.gasprice, 'Fee is below 1000000 gas');\n    }\n\n\n    // TODO reveal many commits in one TX\n    function reveal(\n        // TODO do we need to have _blockHash under signature?\n        bytes32 _blockHash,\n        address _BaseToken, // token to buy/sell\n        address _QuoteToken, // quote token to pay with\n        SwapType _type, // BUY or SELL\n        uint256 _amount, // token or quote token amount\n        uint256 _priceLimit, // 0 for market swap\n        uint256 _nonce\n    ) external {\n        bytes32 hash = keccak256(abi.encode(\n                msg.sender, _BaseToken, _QuoteToken, _type, _amount, _priceLimit, _nonce));\n\n        Commit storage commit =\n            commitBooks[keccak256(abi.encode(_BaseToken, _QuoteToken))].commits[hash];\n        require(commit.block != 0, 'Commit not found');\n        require(blockhash(commit.block) == _blockHash, 'Invalid block hash');\n        require(commit.swap.amount == 0, 'Already revealed');\n\n        commit.swapType = _type;\n        commit.swap = Swap(msg.sender, _amount, _priceLimit, bytes32(0));\n\n        emit SwapRevealed(hash);\n\n        // TODO maybe not even put current commit in storage, if it can be processed right away\n        _clearSwaps(_BaseToken, _QuoteToken);\n    }\n\n\n    // called manually only in extra cases\n    // swaps are processed automatically within reveal method\n    function clearSwaps(address _BaseToken, address _QuoteToken)\n    external {\n        _clearSwaps(_BaseToken, _QuoteToken);\n    }\n\n    // TODO processSwaps while committing and revealing\n    // TODO submit list of possible _after?\n    // TODO: refund 90% of spent gas + refund some deposit + some swap process reward\n    function _clearSwaps(address _BaseToken, address _QuoteToken)\n    nonReentrant() private {\n        CommitBook storage commitBook = commitBooks[keccak256(abi.encode(_BaseToken, _QuoteToken))];\n        mapping(bytes32 => Commit) storage commits = commitBook.commits;\n        bytes32 head = commitBook.head;\n        bytes32 commitHash = bytes32(0);\n        Commit storage commit = commits[head];\n        Swap storage swap = commit.swap;\n\n        // TODO watch gas on fill / place level\n        // looping through commits\n        while (gasleft() > 200000 && commit.block != 0) {\n            if (commit.swap.amount == 0) {\n                // Commit is not revealed\n                // TODO maybe measure both time and height?\n                if (block.number - commit.block > REVEAL_PERIOD) {\n                    // Commit is expired\n                    commitHash = head;\n                    head = commit.next;\n                    commit = commits[head];\n                    swap = commit.swap;\n\n                    emit CommitEvicted(commitHash, 'Expired');\n                    delete commits[commitHash];\n                } else {\n                    // Waiting to get revealed or expired\n                    break;\n                }\n            } else {\n                // Revealed, but not processed\n                if (block.number - commit.block > REVEAL_PERIOD * 2) {\n                    // This should not happen under normal conditions\n                    // Commit is revealed but not processed for too long\n                    // Maybe running out of gas or bad ERC20? We have to move on\n                    // This will delete all the commits for block that got halted\n                    // TODO: separate que for each trading pair,\n                    // TODO: so 1 broken ERC20 doesn't halt the whole trading\n                    // TODO: try _maybeTransfer try catch approach for calling market methods\n                    commitHash = head;\n                    head = commit.next;\n                    commit = commits[head];\n                    swap = commit.swap;\n\n                    emit CommitEvicted(commitHash, 'Expired');\n                    delete commits[commitHash];\n                } else {\n                    // Revealed\n                    commitHash = head;\n                    if (commit.swapType == SwapType.BUY) {\n                        if (swap.price == 0) {\n                            // marketBuy\n                            if (ERC20(_BaseToken).balanceOf(swap.wallet) >= swap.amount &&\n                                ERC20(_QuoteToken).allowance(swap.wallet, address(this)) >= swap.amount\n                            ) {\n                                emit CommitCleared(commitHash);\n                                marketBuy(_BaseToken, _QuoteToken, swap);\n                            } else\n                                emit CommitEvicted(commitHash, 'Allowance');\n                        } else {\n                            // limitBuy\n                            if (ERC20(_QuoteToken).balanceOf(swap.wallet) >= tokenToQuoteToken(_BaseToken, swap.amount, swap.price) &&\n                                ERC20(_QuoteToken).allowance(swap.wallet, address(this)) >= tokenToQuoteToken(_BaseToken, swap.amount, swap.price)\n                            ) {\n                                emit CommitCleared(commitHash);\n                                limitBuy(_BaseToken, _QuoteToken, swap, head, bytes32(0));\n                            } else\n                                emit CommitEvicted(commitHash, 'Allowance');\n\n                        }\n                    } else {\n                        if (ERC20(_BaseToken).balanceOf(swap.wallet) >= swap.amount &&\n                            ERC20(_BaseToken).allowance(swap.wallet, address(this)) >= swap.amount\n                        ) {\n                            emit CommitCleared(commitHash);\n                            if (swap.price == 0) {\n                                // marketSell\n                                marketSell(_BaseToken, _QuoteToken, swap);\n                            } else {\n                                // limitSell\n                                limitSell(_BaseToken, _QuoteToken, swap, head, bytes32(0));\n                            }\n                        } else\n                            emit CommitEvicted(commitHash, 'Allowance');\n                    }\n\n                    head = commit.next;\n                    commit = commits[head];\n                    swap = commit.swap;\n\n                    delete commits[commitHash];\n                }\n\n            }\n        }\n\n        if (head != commitBook.head) {\n            commitBook.head = head;\n        }\n    }\n\n\n    function marketBuy(\n        address _BaseToken, // token to buy\n        address _QuoteToken, // token to pay with\n        Swap storage _swap\n    ) private {\n        _fillOffersWithQuoteToken(_BaseToken, _QuoteToken, _swap);\n    }\n\n\n    function limitBuy(\n        address _BaseToken, // token to buy\n        address _QuoteToken, // token to pay with\n        Swap storage _swap,\n        bytes32 _hash,\n        bytes32 _after\n    ) private {\n        _fillOffers(_BaseToken, _QuoteToken, _swap);\n\n        if (_swap.amount > 0)\n            _placeBid(_BaseToken, _QuoteToken, _swap, _hash, _after);\n    }\n\n\n    function marketSell(\n        address _BaseToken, // token to buy\n        address _QuoteToken, // quote token to pay with\n        Swap storage _swap\n    ) private {\n        _fillBids(_BaseToken, _QuoteToken, _swap);\n    }\n\n\n    function limitSell(\n        address _BaseToken, // token to sell\n        address _QuoteToken, // token to get paid with\n        Swap storage _swap, // token amount\n        bytes32 _hash, // unique hash\n        bytes32 _after // optional to skip\n    ) private {\n        _fillBids(_BaseToken, _QuoteToken, _swap);\n\n        if (_swap.amount > 0)\n            _placeOffer(_BaseToken, _QuoteToken, _swap, _hash, _after);\n    }\n\n\n    function _placeBid(\n        address _BaseToken, // token to buy\n        address _QuoteToken, // token to pay with\n        Swap storage _swap, // token amount\n        bytes32 _hash, // unique hash\n        bytes32 _after  // (optional) to reduce iteration over swaps\n                        // ideally hash of the last bid with equal or higher price\n    ) private {\n        SwapBook storage book = buySwapBooks[keccak256(abi.encode(_BaseToken, _QuoteToken))];\n\n        while (_hash == bytes32(0) || book.swaps[_hash].amount > 0)\n            // Just in case of improbable hash collision\n            _hash = keccak256(abi.encode(_hash, _swap.wallet));\n\n        book.swaps[_hash] = _swap;\n\n        if (_after == bytes32(0) || _swap.price > book.swaps[_after].price) {\n            // Starting from top if _after is unset or misplaced\n            _after = book.top;\n        }\n\n        Swap storage prevBid = book.swaps[_after];\n\n        // if top bid price is higher or equal than offered _price\n        if (_swap.price <= prevBid.price) {\n            Swap storage nextBid = book.swaps[prevBid.next];\n\n            // Iterating to find a bid with lower price\n            while (_swap.price <= nextBid.price) {\n                _after = prevBid.next;\n                prevBid = nextBid;\n                nextBid = book.swaps[prevBid.next];\n            }\n            // Placing bid before the one with lower price\n            _swap.next = prevBid.next;\n            prevBid.next = _hash;\n\n        } else {\n            // Placing new swap as top if _price is the highest\n            _swap.next = book.top;\n            book.top = _hash;\n            _after = bytes32(0);\n        }\n\n        emit SwapPlaced(_BaseToken, _QuoteToken, SwapType.BUY, _swap.wallet, _swap.amount, _swap.price, _hash, _after);\n\n    }\n\n\n    function _placeOffer(\n        address _BaseToken, // to buy\n        address _QuoteToken, // to pay with\n        Swap storage _swap, // token amount\n        bytes32 _hash, // unique hash\n        bytes32 _after  // (optional) to reduce iteration over swaps\n                        // ideally hash of the last bid with equal or higher price\n    ) private {\n        // Locating data in storage\n        SwapBook storage book = sellSwapBooks[keccak256(abi.encode(_BaseToken, _QuoteToken))];\n\n        while (_hash == bytes32(0) || book.swaps[_hash].amount > 0)\n            // Just in case of improbable hash collision\n            _hash = keccak256(abi.encode(_hash, _swap.wallet));\n\n        book.swaps[_hash] = _swap;\n\n        if (_after == bytes32(0) || _swap.price < book.swaps[_after].price) {\n            // Starting from top if _after is unset or misplaced\n            _after = book.top;\n        }\n\n        Swap storage prevOffer = book.swaps[_after];\n\n        // if lowest ask price is lower or equal than _price\n        if (_swap.price >= prevOffer.price && prevOffer.price > 0) {\n            Swap storage nextOffer = book.swaps[prevOffer.next];\n\n            // Iterating to find an offer with higher price\n            while (_swap.price >= nextOffer.price && nextOffer.price > 0) {\n                _after = prevOffer.next;\n                prevOffer = nextOffer;\n                nextOffer = book.swaps[prevOffer.next];\n            }\n            // Placing bid before the one with lower price\n            _swap.next = prevOffer.next;\n            prevOffer.next = _hash;\n\n        } else {\n            // Placing new swap as top if _price is the lowest\n            _swap.next = book.top;\n            book.top = _hash;\n            _after = bytes32(0);\n        }\n\n        emit SwapPlaced(_BaseToken, _QuoteToken, SwapType.SELL, _swap.wallet, _swap.amount,  _swap.price, _hash, _after);\n    }\n\n\n    function _fillBids(\n        address _BaseToken, // token to sell\n        address _QuoteToken, // quote token to get paid with\n        Swap storage _swap // token amount to spend\n    ) private {\n        // Locating data in storage\n        SwapBook storage book = buySwapBooks[keccak256(abi.encode(_BaseToken, _QuoteToken))];\n        bytes32 top = book.top;\n        Swap storage bid = book.swaps[top];\n        uint256 tokenLeft = _swap.amount;\n\n        // Iterating trough swaps TODO watch gas and prevent _swap eviction if not finished\n        while (tokenLeft > 0 && bid.price >= _swap.price && bid.amount > 0) {\n            if (tokenLeft < bid.amount) {\n                if (_maybeTransfer(_QuoteToken, bid.wallet, _swap.wallet, tokenToQuoteToken(_BaseToken, tokenLeft, bid.price))) {\n                    // Filling partially\n                    bid.amount -= tokenLeft;\n                    require(ERC20(_BaseToken).transferFrom(_swap.wallet, bid.wallet, tokenLeft), \"BaseToken transfer failed\");\n                    emit SwapFilled(_BaseToken, _QuoteToken, SwapType.SELL, bid.wallet, _swap.wallet, tokenLeft, bid.price, top, false);\n                    tokenLeft = 0;\n                } else {\n                    emit CommitEvicted(top, 'Allowance');\n                    (top, bid) = _getNextAndDelete(book.swaps, top, bid);\n                }\n            } else {\n                if (_maybeTransfer(_QuoteToken, bid.wallet, _swap.wallet, tokenToQuoteToken(_BaseToken, bid.amount, bid.price))) {\n                    // Filling bid completely\n                    tokenLeft -= bid.amount;\n                    // Moving funds\n                    require(ERC20(_BaseToken).transferFrom(_swap.wallet, bid.wallet, bid.amount), \"BaseToken transfer failed\");\n                    emit SwapFilled(_BaseToken, _QuoteToken, SwapType.SELL, bid.wallet, _swap.wallet, bid.amount, bid.price, top, true);\n                } else {\n                    emit CommitEvicted(top, 'Allowance');\n                }\n                (top, bid) = _getNextAndDelete(book.swaps, top, bid);\n            }\n        }\n\n        if (top != book.top)\n            book.top = top;\n\n        _swap.amount = tokenLeft;\n    }\n\n\n    function _fillOffers(\n        address _BaseToken, // token to sell\n        address _QuoteToken, // quote token to get paid with\n        Swap storage _swap // token amount to spend\n    ) private {\n        // Locating data in storage\n        SwapBook storage book = sellSwapBooks[keccak256(abi.encode(_BaseToken, _QuoteToken))];\n        bytes32 top = book.top;\n        Swap storage offer = book.swaps[top];\n        uint256 tokenTransfer = 0;\n\n        // Iterating trough swaps\n        while (_swap.amount > tokenTransfer && (offer.price <= _swap.price || _swap.price == 0) && offer.amount > 0) {\n            if (_swap.amount - tokenTransfer < offer.amount) {\n                if (_maybeTransfer(_BaseToken, offer.wallet, _swap.wallet, _swap.amount - tokenTransfer)) {\n                    // Filling offer partially\n                    offer.amount -= _swap.amount - tokenTransfer;\n                    require(ERC20(_QuoteToken).transferFrom(_swap.wallet, offer.wallet,\n                        tokenToQuoteToken(_BaseToken, _swap.amount - tokenTransfer, offer.price)), \"QuoteToken transfer failed\");\n                    emit SwapFilled(_BaseToken, _QuoteToken, SwapType.BUY, offer.wallet, _swap.wallet, _swap.amount - tokenTransfer, offer.price, top, false);\n                    // Filled whole swap\n                    tokenTransfer = _swap.amount;\n                } else {\n                    emit CommitEvicted(top, 'Allowance');\n                    (top, offer) = _getNextAndDelete(book.swaps, top, offer);\n                }\n            } else {\n                if (_maybeTransfer(_BaseToken, offer.wallet, _swap.wallet, offer.amount)) {\n                    // Filling offer completely\n                    require(ERC20(_QuoteToken).transferFrom(_swap.wallet, offer.wallet,\n                        tokenToQuoteToken(_BaseToken, offer.amount, offer.price)), \"QuoteToken transfer failed\");\n                    emit SwapFilled(_BaseToken, _QuoteToken, SwapType.BUY, offer.wallet, _swap.wallet, offer.amount, offer.price, top, true);\n                    tokenTransfer = tokenTransfer.add(offer.amount);\n                } else {\n                    emit CommitEvicted(top, 'Allowance');\n                }\n                (top, offer) = _getNextAndDelete(book.swaps, top, offer);\n            }\n        }\n\n        if (top != book.top)\n            book.top = top;\n\n        _swap.amount -= tokenTransfer;\n    }\n\n\n    function _fillOffersWithQuoteToken(\n        address _BaseToken, // token to by\n        address _QuoteToken, // quote token to pay with\n        Swap storage _swap // token amount to spend\n    ) private {\n        // Locating data in storage\n        SwapBook storage book = sellSwapBooks[keccak256(abi.encode(_BaseToken, _QuoteToken))];\n        bytes32 top = book.top;\n        Swap storage offer = book.swaps[top];\n        uint256 quoteTokenAmount = _swap.amount;\n        uint256 convertedAmount = 0;\n\n        // Iterating trough swaps\n        while (quoteTokenAmount > 0 && offer.amount > 0) {\n            // amount of quote token offer asks for\n            convertedAmount = tokenToQuoteToken(_BaseToken, offer.amount, offer.price);\n            if (quoteTokenAmount < convertedAmount) {\n\n                // amount of token we can fill\n                convertedAmount = offer.amount.mul(quoteTokenAmount).div(convertedAmount);\n                if (_maybeTransfer(_BaseToken, offer.wallet, _swap.wallet, convertedAmount)) {\n                    // Filling partially\n                    offer.amount -= convertedAmount;\n\n                    // Moving funds\n                    require(ERC20(_QuoteToken).transferFrom(_swap.wallet, offer.wallet,\n                        tokenToQuoteToken(_BaseToken, convertedAmount, offer.price)), \"QuoteToken transfer failed\");\n\n                    emit SwapFilled(_BaseToken, _QuoteToken, SwapType.BUY, offer.wallet, _swap.wallet, convertedAmount, offer.price, top, false);\n                    quoteTokenAmount = quoteTokenAmount - tokenToQuoteToken(_BaseToken, convertedAmount, offer.price);\n                    break;\n                } else {\n                    emit CommitEvicted(top, 'Allowance');\n                    (top, offer) = _getNextAndDelete(book.swaps, top, offer);\n                }\n            } else {\n                if (_maybeTransfer(_BaseToken, offer.wallet, _swap.wallet, offer.amount)) {\n\n                    // Filling offer completely\n                    quoteTokenAmount -= convertedAmount;\n\n                    // Moving funds\n                    require(ERC20(_QuoteToken).transferFrom(_swap.wallet, offer.wallet, convertedAmount), \"QuoteToken transfer failed\");\n\n                    emit SwapFilled(_BaseToken, _QuoteToken, SwapType.BUY, offer.wallet, _swap.wallet, offer.amount, offer.price, top, true);\n\n                } else {\n                    emit CommitEvicted(top, 'Allowance');\n                }\n                (top, offer) = _getNextAndDelete(book.swaps, top, offer);\n            }\n        }\n\n        if (top != book.top)\n            book.top = top;\n\n        _swap.amount = quoteTokenAmount;\n    }\n\n\n    function _getNextAndDelete(\n        mapping(bytes32 => Swap) storage _swaps,\n        bytes32 _top,\n        Swap storage _swap\n    ) private returns (bytes32, Swap storage) {\n        bytes32 top = _swap.next;\n        delete _swaps[_top];\n        return (top, _swaps[top]);\n    }\n\n\n    function cancelBuySwap(\n        address _BaseToken, // to buy\n        address _QuoteToken, // to pay with\n        bytes32 _id, // swaps hash\n        bytes32 _after  // optional to skip\n    ) external {\n        _cancelSwap(_BaseToken, _QuoteToken, SwapType.BUY, _id, _after);\n    }\n\n\n    function cancelSellSwap(\n        address _BaseToken, // to buy\n        address _QuoteToken, // to pay with\n        bytes32 _id, // swaps hash\n        bytes32 _after  // optional to skip\n    ) external {\n        _cancelSwap(_BaseToken, _QuoteToken, SwapType.SELL, _id, _after);\n    }\n\n\n    function _cancelSwap(\n        address _BaseToken, // to buy\n        address _QuoteToken, // to pay with\n        SwapType _type, // to pay with\n        bytes32 _id, // swaps hash\n        bytes32 _after  // (optional) to reduce iteration over swaps\n    // ideally hash of the last bid with equal or higher price\n    ) private {\n\n        // Locating data in storage\n        SwapBook storage book = (_type == SwapType.BUY ?\n            buySwapBooks : sellSwapBooks\n        )[keccak256(abi.encode(_BaseToken, _QuoteToken))];\n\n        mapping(bytes32 => Swap) storage swaps = book.swaps;\n        Swap memory swap = swaps[_id];\n        bool willDelete = false;\n\n        if (book.top == _id) {\n            book.top = swap.next;\n            willDelete = true;\n        } else {\n\n            if (_after == bytes32(0) || swaps[_after].price == 0) {\n                // Starting from top if _after is unset or misplaced\n                _after = book.top;\n            }\n\n\n            // Iterating to find a bid pointing to _id\n            Swap storage removeAfter = swaps[_after];\n            while (removeAfter.price > 0) {\n                if (removeAfter.next == _id) {\n                    removeAfter.next = swap.next;\n                    willDelete = true;\n                    break;\n                }\n                removeAfter = swaps[removeAfter.next];\n            }\n\n        }\n\n        if (willDelete) {\n            require(msg.sender == swap.wallet, \"Wrong wallet\");\n            delete swaps[_id];\n            emit SwapCanceled(_BaseToken, _QuoteToken, _type, swap.wallet, _id);\n        }\n    }\n\n\n    struct SwapData {\n        bytes32 id;\n        uint256 amount;\n        uint256 price;\n        address wallet;\n    }\n\n\n    function getSwapBook(\n        address _BaseToken, // token to buy\n        address _QuoteToken, // quote token to pay with\n        SwapType _type,\n        uint256 _size, // how many swaps to get\n        bytes32 _after // pagination\n    )\n    external view returns (SwapData[] memory) {\n        // TODO: opposite pair guard\n\n        // Locating data in storage\n        SwapBook storage book = (_type == SwapType.BUY ?\n            buySwapBooks : sellSwapBooks\n        )[keccak256(abi.encode(_BaseToken, _QuoteToken))];\n        mapping(bytes32 => Swap) storage swaps = book.swaps;\n        bytes32 id = _after == bytes32(0) ? book.top : _after;\n        Swap storage swap = swaps[id];\n\n        uint256 size = _size;\n        SwapData[] memory buySwaps = new SwapData[](size);\n        for (uint256 i=0; i < size; i++) {\n            if (swap.amount == 0) {\n                // end of book\n                // trimming buySwaps into a smaller list\n                // by resetting the for loop\n                buySwaps = new SwapData[](i);\n                if (i == 0) return buySwaps;\n\n                id = book.top;\n                swap = swaps[id];\n                size = i;\n                i = 0;\n            }\n            buySwaps[i] = SwapData(\n                id,\n                swap.amount,\n                swap.price,\n                swap.wallet\n            );\n            id = swap.next;\n            swap = swaps[id];\n        }\n        return buySwaps;\n    }\n\n\n    function _maybeTransfer(address _Token, address _from, address _to, uint256 _amount)\n    private returns (bool) {\n        (bool success, bytes memory returnData) =\n        _Token.call(\n            abi.encodePacked(\n                ERC20(_Token).transferFrom.selector,\n                abi.encode(_from, _to, _amount)\n            )\n        );\n\n        if (success) {\n            return abi.decode(returnData, (bool));\n        } else {\n            return false;\n        }\n    }\n\n}\n\n\n",
  "sourcePath": "/home/er/Documents/Projects/ethereal.market/contracts/Market.sol",
  "compiler": {
    "name": "solc",
    "version": "0.5.8+commit.23d335f2.Emscripten.clang"
  },
  "schemaVersion": "3.0.15",
  "updatedAt": "2019-09-16T08:02:05.233Z",
  "devdoc": {
    "methods": {}
  },
  "userdoc": {
    "methods": {}
  }
}